:1000000049C0000057C0000055C0000053C00000A8
:1000100051C000004FC000004DC000004BC00000A8
:1000200049C0000047C0000045C0000043C00000B8
:1000300041C000003FC000003DC000003BC00000C8
:10004000CEC1000037C0000090C0000033C00000E7
:1000500031C000002FC000002DC000002BC00000E8
:1000600029C0000027C0000025C0000023C00000F8
:1000700021C000001FC000001DC000001BC0000008
:1000800019C0000017C0000015C0000013C0000018
:1000900011C0000011241FBECFEFD0E1DEBFCDBFE5
:1000A00022E0A0E0B1E001C01D92AA3FB207E1F753
:1000B00002D0E8C3A5CF6C9A74986D9A7598B4D1A4
:1000C000F7D080D12FEF8FEB91E22150804090400C
:1000D000E1F700C0000021E041E064EB70E086E958
:1000E00090E0E6D12FEF8FED90E1215080409040DD
:1000F000E1F700C0000021E041E064EB70E084E63D
:1001000090E0D6D12FEF8FED90E1215080409040CC
:10011000E1F700C0000021E041E064EB70E082E321
:1001200090E0C6D12FEF8FED90E1215080409040BC
:10013000E1F700C0000021E041E064EB70E08AE0FC
:1001400090E0B6D12FEF8FED90E1215080409040AC
:10015000E1F700C0000021E041E064EB70E088ECD2
:1001600090E0A6D180E090E008951F920F920FB624
:100170000F9211240BB60F922F933F934F935F93DF
:100180008F939F93AF93BF93EF93FF93EDEEF0E0C8
:10019000408110828091EE0085FD10C08091EE00BC
:1001A00086FD63C081E0ADEEB0E0EEEEF0E0982FAA
:1001B0009295907F9C93908195FF54C080E88093A6
:1001C000EF00EEEEF0E080818F7D808380E090E0B4
:1001D000AAEFB0E02091010130E05C91F901EE0F4F
:1001E000FF1F220F331F220F331F220F331FE20F77
:1001F000F31FE80FF91FEE5FFE4F50830196883022
:10020000910541F78091010190E05091F200209119
:10021000F30030E0220F331F220F331F220F331F52
:10022000529556955770252BFC01EE0FFF1F880F36
:10023000991F880F991F880F991FE80FF91FEE5F0C
:10024000FE4F31872087809101018F5F80930101EC
:10025000823311F410920101809100018F5F80932D
:1002600000010FC0908196FF08C01092EF00EEEEE3
:10027000F0E080818F7B808304C08F5F8F3009F036
:1002800096CF4093ED00EAEDF0E080818083FF910E
:10029000EF91BF91AF919F918F915F914F913F915E
:1002A0002F910F900BBE0F900FBE0F901F901895BF
:1002B0002F923F925F926F927F928F929F92AF9216
:1002C000BF92CF92DF92EF92FF920F931F93CF9343
:1002D000DF9381E08093D800612C0F2EFDEECF2EAE
:1002E000D12CF02D0F2EFEEEEF2EF12CF02D0FEE77
:1002F00010E063EF70E042EF50E021EF30E080EF7C
:1003000090E0C7EFD0E00F2EF6EF2F2E312CF02D1E
:100310000F2EF5EFAF2EB12CF02D0F2EF4EF8F2E08
:10032000912CF02D6894552453F8EAEFF0E0762CE8
:10033000770C770C770C770CD6017C92D7011C9246
:10034000D8011C92DB011C92DA011C92D9011C928B
:10035000DC011C921882D1011C92D5011C92D4019F
:100360001C92752C10827A94E9F76394BFE06B12AB
:10037000DECF82E08093D80081E08093E2008AE0C3
:100380008093E3008EE68093E4001092E50080EB1A
:100390008093DB008FE78093DF008FEF8093DE0098
:1003A000DF91CF911F910F91FF90EF90DF90CF9051
:1003B000BF90AF909F908F907F906F905F903F9095
:1003C0002F9008958CE084BDEEE6F0E0808182609D
:1003D00080838BE287BD8FB780688FBF08951F929F
:1003E0000F920FB60F9211248F939F93AF93BF93E9
:1003F0008091F6029091F702A091F802B091F90273
:100400000196A11DB11D8093F6029093F702A0936F
:10041000F802B093F902BF91AF919F918F910F9025
:100420000FBE0F901F9018958DB18C7F8DB91092D3
:10043000C00088E18093C10086E08093C2001092E2
:10044000C50085E08093C4002FEF8FE593E0215035
:1004500080409040E1F700C000000895E0ECF0E03B
:10046000908195FFFDCF8093C6000895E0ECF0E009
:10047000808186FFFDCFE1ECF0E08081877F808383
:10048000E0ECF0E08081806480830895E1ECF0E0AE
:100490008081886080830895E1ECF0E080818F7E28
:1004A00080830895E1ECF0E080818061808308958D
:1004B0009F92AF92BF92CF92DF92EF92FF920F93F3
:1004C0001F93CF93DF93EB01B42E922EBC0180E0FB
:1004D00090E0E7D020E030E046E953E44ED020E061
:1004E00030EC4FE754E46BD1B0D06B017C01072FA7
:1004F00011278B2D90E0982F8827990F990FC82BE3
:10050000D92BAD2EBB24C8DF8FEFA8DF8FEFA6DF7E
:10051000892DA4DF87E0A2DF83E0A0DF8EE19EDFEC
:100520008C2D9CDF802F9ADF8C2F98DF8A2D96DF11
:10053000892D90E08896A80EB91EAC0EB11C0A0D4C
:100540001B1D8C2D800F809589DF90DFABDF8FEF37
:100550009FEA21E0815090402040E1F700C0000078
:1005600095DFDF91CF911F910F91FF90EF90DF907A
:10057000CF90BF90AF909F9008950CD0E6C0DED092
:1005800040F0D5D030F021F45F3F19F0C7C05111D1
:1005900010C1CAC0EBD098F39923C9F35523B1F326
:1005A000951B550BBB27AA2762177307840738F0E2
:1005B0009F5F5F4F220F331F441FAA1FA9F333D041
:1005C0000E2E3AF0E0E830D091505040E695001CF5
:1005D000CAF729D0FE2F27D0660F771F881FBB1FB1
:1005E000261737074807AB07B0E809F0BB0B802D8B
:1005F000BF01FF2793585F4F2AF09E3F510568F0D7
:100600008DC0D7C05F3FECF3983EDCF386957795BD
:100610006795B795F7959F5FC9F7880F911D9695D8
:10062000879597F90895E1E0660F771F881FBB1F34
:10063000621773078407BA0720F0621B730B840BE1
:10064000BA0BEE1F88F7E095089598D088F09F5771
:1006500090F0B92F9927B751A0F0D1F0660F771F0E
:10066000881F991F1AF0BA95C9F712C0B13081F0EE
:100670009FD0B1E008959CC0672F782F8827B85F7E
:1006800039F0B93FCCF3869577956795B395D9F74F
:100690003EF490958095709561957F4F8F4F9F4F59
:1006A0000895E89409C097FB3EF490958095709565
:1006B00061957F4F8F4F9F4F9923A9F0F92F96E9AE
:1006C000BB279395F695879577956795B795F11123
:1006D000F8CFFAF4BB0F11F460FF1BC06F5F7F4FC0
:1006E0008F4F9F4F16C0882311F096E911C07723D2
:1006F00021F09EE8872F762F05C0662371F096E8DB
:10070000862F70E060E02AF09A95660F771F881FA9
:10071000DAF7880F9695879597F9089597F99F6767
:1007200080E870E060E008959FEF80EC0895002479
:100730000A941616170618060906089500240A9446
:1007400012161306140605060895092E0394000CCC
:1007500011F4882352F0BB0F40F4BF2B11F460FF5B
:1007600004C06F5F7F4F8F4F9F4F089557FD905884
:10077000440F551F59F05F3F71F04795880F97FB65
:10078000991F61F09F3F79F087950895121613061F
:100790001406551FF2CF4695F1DF08C0161617064E
:1007A0001806991FF1CF8695710561050894089583
:1007B000E894BB2766277727CB0197F908950BD0DC
:1007C000C4CFB5DF28F0BADF18F0952309F0A6CF23
:1007D000ABCF1124EECFCADFA0F3959FD1F3950FD5
:1007E00050E0551F629FF001729FBB27F00DB11DB5
:1007F000639FAA27F00DB11DAA1F649F6627B00D45
:10080000A11D661F829F2227B00DA11D621F739F2D
:10081000B00DA11D621F839FA00D611D221F749F3B
:100820003327A00D611D231F849F600D211D822F82
:10083000762F6A2F11249F5750408AF0E1F08823C9
:100840004AF0EE0FFF1FBB1F661F771F881F9150D6
:100850005040A9F79E3F510570F060CFAACF5F3F8F
:10086000ECF3983EDCF3869577956795B795F79509
:10087000E7959F5FC1F7FE2B880F911D9695879591
:0808800097F90895F894FFCFE9
:00000001FF
